{
  "contractName": "Voting",
  "abi": [
    {
      "inputs": [
        {
          "internalType": "string[]",
          "name": "candidateNames",
          "type": "string[]"
        },
        {
          "internalType": "address[]",
          "name": "eligibleVotersAddresses",
          "type": "address[]"
        }
      ],
      "stateMutability": "nonpayable",
      "type": "constructor"
    },
    {
      "anonymous": false,
      "inputs": [
        {
          "indexed": true,
          "internalType": "uint256",
          "name": "candidateId",
          "type": "uint256"
        }
      ],
      "name": "Voted",
      "type": "event"
    },
    {
      "anonymous": false,
      "inputs": [
        {
          "indexed": false,
          "internalType": "bool",
          "name": "newStatus",
          "type": "bool"
        }
      ],
      "name": "VotingStatusChanged",
      "type": "event"
    },
    {
      "inputs": [],
      "name": "admin",
      "outputs": [
        {
          "internalType": "address",
          "name": "",
          "type": "address"
        }
      ],
      "stateMutability": "view",
      "type": "function",
      "constant": true
    },
    {
      "inputs": [
        {
          "internalType": "uint256",
          "name": "",
          "type": "uint256"
        }
      ],
      "name": "candidates",
      "outputs": [
        {
          "internalType": "string",
          "name": "name",
          "type": "string"
        },
        {
          "internalType": "uint256",
          "name": "voteCount",
          "type": "uint256"
        }
      ],
      "stateMutability": "view",
      "type": "function",
      "constant": true
    },
    {
      "inputs": [
        {
          "internalType": "address",
          "name": "",
          "type": "address"
        }
      ],
      "name": "eligibleVoters",
      "outputs": [
        {
          "internalType": "bool",
          "name": "",
          "type": "bool"
        }
      ],
      "stateMutability": "view",
      "type": "function",
      "constant": true
    },
    {
      "inputs": [
        {
          "internalType": "address",
          "name": "",
          "type": "address"
        }
      ],
      "name": "voters",
      "outputs": [
        {
          "internalType": "bool",
          "name": "",
          "type": "bool"
        }
      ],
      "stateMutability": "view",
      "type": "function",
      "constant": true
    },
    {
      "inputs": [],
      "name": "votingActive",
      "outputs": [
        {
          "internalType": "bool",
          "name": "",
          "type": "bool"
        }
      ],
      "stateMutability": "view",
      "type": "function",
      "constant": true
    },
    {
      "inputs": [],
      "name": "startVoting",
      "outputs": [],
      "stateMutability": "nonpayable",
      "type": "function"
    },
    {
      "inputs": [],
      "name": "endVoting",
      "outputs": [],
      "stateMutability": "nonpayable",
      "type": "function"
    },
    {
      "inputs": [],
      "name": "getCandidatesCount",
      "outputs": [
        {
          "internalType": "uint256",
          "name": "",
          "type": "uint256"
        }
      ],
      "stateMutability": "view",
      "type": "function",
      "constant": true
    },
    {
      "inputs": [],
      "name": "getAllCandidates",
      "outputs": [
        {
          "components": [
            {
              "internalType": "string",
              "name": "name",
              "type": "string"
            },
            {
              "internalType": "uint256",
              "name": "voteCount",
              "type": "uint256"
            }
          ],
          "internalType": "struct Voting.Candidate[]",
          "name": "",
          "type": "tuple[]"
        }
      ],
      "stateMutability": "view",
      "type": "function",
      "constant": true
    },
    {
      "inputs": [
        {
          "internalType": "uint256",
          "name": "candidateId",
          "type": "uint256"
        }
      ],
      "name": "vote",
      "outputs": [],
      "stateMutability": "nonpayable",
      "type": "function"
    }
  ],
  "bytecode": "0x60806040523480156200001157600080fd5b5060405162000e3b38038062000e3b833981016040819052620000349162000250565b600380546001600160a01b0319163317905560005b8251811015620000d25760026040518060400160405280858481518110620000755762000075620003a8565b60209081029190910181015182526000918101829052835460018101855593825290208151919260020201908190620000af90826200044d565b506020820151816001015550508080620000c99062000519565b91505062000049565b5060005b815181101562000141576001806000848481518110620000fa57620000fa620003a8565b6020908102919091018101516001600160a01b03168252810191909152604001600020805460ff191691151591909117905580620001388162000519565b915050620000d6565b50506003805460ff60a01b191690555062000541565b634e487b7160e01b600052604160045260246000fd5b604051601f8201601f191681016001600160401b038111828210171562000198576200019862000157565b604052919050565b60006001600160401b03821115620001bc57620001bc62000157565b5060051b60200190565b600082601f830112620001d857600080fd5b81516020620001f1620001eb83620001a0565b6200016d565b82815260059290921b840181019181810190868411156200021157600080fd5b8286015b84811015620002455780516001600160a01b0381168114620002375760008081fd5b835291830191830162000215565b509695505050505050565b60008060408084860312156200026557600080fd5b83516001600160401b03808211156200027d57600080fd5b8186019150601f87818401126200029357600080fd5b82516020620002a6620001eb83620001a0565b82815260059290921b8501810191818101908b841115620002c657600080fd5b8287015b848110156200037257805187811115620002e45760008081fd5b8801603f81018e13620002f75760008081fd5b84810151888111156200030e576200030e62000157565b62000321818901601f191687016200016d565b8181528f8c838501011115620003375760008081fd5b60005b8281101562000357578381018d015182820189015287016200033a565b506000918101870191909152845250918301918301620002ca565b50918a0151919850909550505050808311156200038e57600080fd5b50506200039e85828601620001c6565b9150509250929050565b634e487b7160e01b600052603260045260246000fd5b600181811c90821680620003d357607f821691505b602082108103620003f457634e487b7160e01b600052602260045260246000fd5b50919050565b601f8211156200044857600081815260208120601f850160051c81016020861015620004235750805b601f850160051c820191505b8181101562000444578281556001016200042f565b5050505b505050565b81516001600160401b0381111562000469576200046962000157565b62000481816200047a8454620003be565b84620003fa565b602080601f831160018114620004b95760008415620004a05750858301515b600019600386901b1c1916600185901b17855562000444565b600085815260208120601f198616915b82811015620004ea57888601518255948401946001909101908401620004c9565b5085821015620005095787850151600019600388901b60f8161c191681555b5050505050600190811b01905550565b6000600182016200053a57634e487b7160e01b600052601160045260246000fd5b5060010190565b6108ea80620005516000396000f3fe608060405234801561001057600080fd5b506004361061009e5760003560e01c8063a3ec138d11610066578063a3ec138d14610123578063bb9aa28f14610146578063c3403ddf14610157578063e8efd4801461015f578063f851a4401461018257600080fd5b80630121b93f146100a35780631ec6b60a146100b85780632e6997fe146100c05780633477ee2e146100de578063408e2727146100ff575b600080fd5b6100b66100b13660046106d0565b6101ad565b005b6100b6610392565b6100c8610460565b6040516100d5919061072f565b60405180910390f35b6100f16100ec3660046106d0565b61055b565b6040516100d59291906107a5565b60035461011390600160a01b900460ff1681565b60405190151581526020016100d5565b6101136101313660046107c7565b60006020819052908152604090205460ff1681565b6002546040519081526020016100d5565b6100b6610617565b61011361016d3660046107c7565b60016020526000908152604090205460ff1681565b600354610195906001600160a01b031681565b6040516001600160a01b0390911681526020016100d5565b3360009081526001602052604090205460ff166102115760405162461bcd60e51b815260206004820152601e60248201527f596f7520617265206e6f7420616e20656c696769626c6520766f7465722e000060448201526064015b60405180910390fd5b600354600160a01b900460ff1661026a5760405162461bcd60e51b815260206004820152601f60248201527f566f74696e67206973206e6f742063757272656e746c79206163746976652e006044820152606401610208565b3360009081526020819052604090205460ff16156102ca5760405162461bcd60e51b815260206004820152601760248201527f596f75206861766520616c726561647920766f7465642e0000000000000000006044820152606401610208565b60025481106103135760405162461bcd60e51b815260206004820152601560248201527424b73b30b634b21031b0b73234b230ba329024a21760591b6044820152606401610208565b336000908152602081905260409020805460ff191660011790556002805482908110610341576103416107f7565b60009182526020822060016002909202010180549161035f8361080d565b909155505060405181907f7f511e347bf51eed3be100b3194247d5207f05f3b33de7d31e3e8ee73199a04990600090a250565b6003546001600160a01b031633146103bc5760405162461bcd60e51b815260040161020890610834565b600354600160a01b900460ff16156104165760405162461bcd60e51b815260206004820152601960248201527f566f74696e6720697320616c7265616479206163746976652e000000000000006044820152606401610208565b6003805460ff60a01b1916600160a01b179055604051600181527f9069a1a16ace751e8690f383e12f87b01e8488ba387e626810bd113fef0417f9906020015b60405180910390a1565b60606002805480602002602001604051908101604052809291908181526020016000905b8282101561055257838290600052602060002090600202016040518060400160405290816000820180546104b79061087a565b80601f01602080910402602001604051908101604052809291908181526020018280546104e39061087a565b80156105305780601f1061050557610100808354040283529160200191610530565b820191906000526020600020905b81548152906001019060200180831161051357829003601f168201915b5050505050815260200160018201548152505081526020019060010190610484565b50505050905090565b6002818154811061056b57600080fd5b906000526020600020906002020160009150905080600001805461058e9061087a565b80601f01602080910402602001604051908101604052809291908181526020018280546105ba9061087a565b80156106075780601f106105dc57610100808354040283529160200191610607565b820191906000526020600020905b8154815290600101906020018083116105ea57829003601f168201915b5050505050908060010154905082565b6003546001600160a01b031633146106415760405162461bcd60e51b815260040161020890610834565b600354600160a01b900460ff166106925760405162461bcd60e51b81526020600482015260156024820152742b37ba34b7339034b9903737ba1030b1ba34bb329760591b6044820152606401610208565b6003805460ff60a01b19169055604051600081527f9069a1a16ace751e8690f383e12f87b01e8488ba387e626810bd113fef0417f990602001610456565b6000602082840312156106e257600080fd5b5035919050565b6000815180845260005b8181101561070f576020818501810151868301820152016106f3565b506000602082860101526020601f19601f83011685010191505092915050565b60006020808301818452808551808352604092508286019150828160051b87010184880160005b8381101561079757888303603f190185528151805187855261077a888601826106e9565b918901519489019490945294870194925090860190600101610756565b509098975050505050505050565b6040815260006107b860408301856106e9565b90508260208301529392505050565b6000602082840312156107d957600080fd5b81356001600160a01b03811681146107f057600080fd5b9392505050565b634e487b7160e01b600052603260045260246000fd5b60006001820161082d57634e487b7160e01b600052601160045260246000fd5b5060010190565b60208082526026908201527f4f6e6c79207468652061646d696e2063616e2063616c6c20746869732066756e60408201526531ba34b7b71760d11b606082015260800190565b600181811c9082168061088e57607f821691505b6020821081036108ae57634e487b7160e01b600052602260045260246000fd5b5091905056fea26469706673582212207491da67051add7ef673fdad80662d2df8642e55d2c154c8996679366ff8a27464736f6c63430008130033",
  "immutableReferences": {},
  "source": "// SPDX-License-Identifier: MIT\npragma solidity >=0.8.19 <0.9.0;\n\ncontract Voting {\n    // Represents a candidate\n    struct Candidate {\n        string name;\n        uint voteCount;\n    }\n\n    // A mapping to track if a voter has already cast a vote\n    mapping(address => bool) public voters;\n\n    // A mapping to track if a voter is eligible (pre-registered)\n    mapping(address => bool) public eligibleVoters;\n\n    // An array to store all candidates\n    Candidate[] public candidates;\n\n    // The admin of the contract\n    address public admin;\n\n    // A state variable to track if voting is active\n    bool public votingActive;\n\n    // Event emitted when a vote is cast\n    event Voted(uint indexed candidateId);\n\n    // Event emitted when voting starts or ends\n    event VotingStatusChanged(bool newStatus);\n\n    // The constructor now takes both candidate names and a list of eligible voters\n    constructor(string[] memory candidateNames, address[] memory eligibleVotersAddresses) {\n        admin = msg.sender;\n        for (uint i = 0; i < candidateNames.length; i++) {\n            candidates.push(Candidate({\n                name: candidateNames[i],\n                voteCount: 0\n            }));\n        }\n        for (uint i = 0; i < eligibleVotersAddresses.length; i++) {\n            eligibleVoters[eligibleVotersAddresses[i]] = true;\n        }\n        // Voting is initially inactive\n        votingActive = false;\n    }\n\n    // A modifier to restrict a function to the admin\n    modifier onlyAdmin() {\n        require(msg.sender == admin, \"Only the admin can call this function.\");\n        _;\n    }\n\n    // Function to start the voting process\n    function startVoting() public onlyAdmin {\n        require(!votingActive, \"Voting is already active.\");\n        votingActive = true;\n        emit VotingStatusChanged(true);\n    }\n\n    // Function to end the voting process\n    function endVoting() public onlyAdmin {\n        require(votingActive, \"Voting is not active.\");\n        votingActive = false;\n        emit VotingStatusChanged(false);\n    }\n\n    // Function to get the total number of candidates\n    function getCandidatesCount() public view returns (uint) {\n        return candidates.length;\n    }\n\n    // Function to get all candidates at once\n    function getAllCandidates() public view returns (Candidate[] memory) {\n        return candidates;\n    }\n\n    // The vote function now checks for eligibility\n    function vote(uint candidateId) public {\n        require(eligibleVoters[msg.sender], \"You are not an eligible voter.\");\n        require(votingActive, \"Voting is not currently active.\");\n        require(!voters[msg.sender], \"You have already voted.\");\n        require(candidateId >= 0 && candidateId < candidates.length, \"Invalid candidate ID.\");\n\n        voters[msg.sender] = true;\n        candidates[candidateId].voteCount++;\n        emit Voted(candidateId);\n    }\n}",
  "sourcePath": "/home/timothy/Desktop/blockchain-voting/contracts/Voting.sol",
  "compiler": {
    "name": "solc",
    "version": "0.8.19+commit.7dd6d404.Emscripten.clang"
  },
  "schemaVersion": "3.4.16",
  "updatedAt": "2025-09-15T15:12:22.546Z",
  "networkType": "ethereum",
  "devdoc": {
    "kind": "dev",
    "methods": {},
    "version": 1
  },
  "userdoc": {
    "kind": "user",
    "methods": {},
    "version": 1
  }
}